:100000000C942A000C9447000C9447000C94470071
:100010000C9447000C9447000C9447000C94470044
:100020000C9447000C9447000C9447000C94470034
:100030000C9447000C9447000C9447000C94470024
:100040000C9447000C9447000C9447000C94470014
:100050000C94470011241FBECFE5D8E0DEBFCDBF12
:1000600011E0A0E6B0E0E2E9F3E202C005900D92F3
:10007000A038B107D9F713E0A0E8B1E001C01D92A4
:10008000A23BB107E1F70E94DB000C94C7110C946E
:100090000000C398BB9A8FE295E00197F1F7BB98F7
:1000A0008DED8A95F1F786B3E9E8F4E03197F1F741
:1000B00088700895009741F4C398BB9A8DED8A9596
:1000C000F1F7BB9886B30895019749F4C398BB9A9A
:1000D00082E18A95F1F7BB988AEC8A95F1F7089549
:1000E000BB9AC39883E08A95F1F7BB9883E38A951E
:1000F000F1F786B395EA9A95F1F7869586958695F8
:10010000817008950F931F93CF93DF93C0E0D0E0E9
:10011000082F10E0C8010C2E02C0959587950A940F
:10012000E2F780FF03C081E090E002C080E090E051
:100130000E945A002196C830D10561F7DF91CF9116
:100140001F910F910895EF92FF921F93CF93DF932A
:1001500010E0C0E0D0E081E0E82EF12C0E947000B9
:10016000882341F0C7010C2E02C0880F991F0A9402
:10017000E2F7182B2196C830D10581F7812FDF9146
:10018000CF911F91FF90EF90089580E29EE424E1CB
:1001900031E0F9013197F1F70197D9F780E060E09C
:1001A0000E94470380E090E00E944B0B80E690E0C5
:1001B0000E943A0308956F927F928F929F92AF921E
:1001C000BF92CF92DF92EF92FF920F931F93CF9344
:1001D000DF938E980E94D30288E893E124E131E016
:1001E000F9013197F1F70197D9F780E060E00E94BB
:1001F000470385E891E00E944B0B8093B10388236D
:1002000021F481E790E00E943A038091B1038730A6
:1002100021F480E890E00E943A038091B10381309C
:1002200021F485EA90E00E943A038091B103823084
:1002300021F481EC90E00E943A0380E197E224E10E
:1002400031E0F9013197F1F70197D9F78BEF90E0A1
:100250000E9469088093B10320E23EE444E151E04A
:10026000FA013197F1F721503040D1F7882351F04E
:1002700080E060E00E9447038AE091E00E943A0338
:100280000E94C50081EB91E06FE070E04FEA51E021
:100290000E94CF088093B1038091AF019091B0018B
:1002A0000F9751F080E060E00E9447038DE191E0FC
:1002B0000E943A030E94C50080E060E00E9447036C
:1002C00081EB91E00E943A0380E593EC24E131E078
:1002D000F9013197F1F70197D9F70E942A0381E3D9
:1002E00091E00E9469088093B10320E23EE444E17A
:1002F00051E0FA013197F1F721503040D1F78823CE
:1003000051F080E060E00E9447038AE091E00E94A3
:100310003A030E94C50081EB91E068EE73E04FEA7A
:1003200051E00E94CF088093B10380E060E00E941A
:10033000470381EB91E00E943A0380E593EC24E1CE
:1003400031E0F9013197F1F70197D9F70E942A03BB
:1003500071E7672E72E0772E64E1A62E61E0B62E7B
:1003600051EBC52E51E0D52E48E4842E41E0942E69
:100370000E944900882309F0CBC08CEC0E948200C7
:1003800084E40E9482000E9470008823E1F30E94AE
:1003900049008CEC0E9482008EEB0E9482000E9439
:1003A000A300082F10E00E94A300F82E0E9449002D
:1003B000CF2DD0E0C770D07034E0CC0FDD1F3A9560
:1003C000E1F7C80124E0969587952A95E1F7C80FD3
:1003D000D91F0F701070069D7001079DF00C169DBF
:1003E000F00C112480E060E00E94470380E491E07B
:1003F0000E943A03CE010E94520386E491E00E94DB
:100400003A030130110521F480E090E00E9452038C
:10041000C7010E94520388E893E1F5013197F1F793
:100420000197D9F78DB79EB708970FB6F8949EBF7E
:100430000FBE8DBFEDB7FEB73196ADB7BEB7129602
:10044000DC92CE92119793828282D583C483F78205
:10045000E6820E94CB0EF60101900020E9F78F01A1
:1004600001501040015B114010E08DB79EB7089617
:100470000FB6F8949EBF0FBE8DBFC601B8014FEAFC
:1004800051E00E941F0A8093B1038091AF019091C7
:10049000B0018017910751F080E060E00E944703AF
:1004A00085E591E00E943A030E94C500869960CFDD
:1004B00080E090E060E070E04FEA51E00E941F0AA7
:1004C0008093B1030E94C5000E942A0380E060E08F
:1004D0000E94470389E691E00E943A0380E197E297
:1004E00024E131E0F9013197F1F70197D9F780E084
:1004F00090E0DF91CF911F910F91FF90EF90DF90EF
:10050000CF90BF90AF909F908F907F906F90089505
:100510000E944900882309F42BCF80E060E00E940C
:10052000470382E791E00E943A0388E893E1F501EE
:100530003197F1F70197D9F71BCFD99A80FF02C005
:10054000DA9A01C0DA9881FF02C0DB9A01C0DB9819
:1005500082FF02C0DC9A01C0DC9883FF02C0DD9AF2
:1005600001C0DD98D9980895FF920F931F93F82E3C
:1005700082958F700E949D020BE411E0C8010197E3
:10058000F1F78F2D0E949D02C8010197F1F71F918D
:100590000F91FF900895D8980E94B4020895D89AB8
:1005A0000E94B40208950F931F93CF93DF93D09AC4
:1005B000D19A8AB38C638ABBD898D9981BBA22EC9B
:1005C00031E044E151E0C4E1D1E0CA010197F1F723
:1005D00021503040C1F783E00E949D0287E49CE2F5
:1005E0000197F1F783E00E949D02CE010197F1F798
:1005F00083E00E949D02CE010197F1F782E00E9404
:100600009D0206E610E2C8010197F1F788E20E9418
:10061000CB02C8010197F1F788E00E94CB02C80124
:100620000197F1F781E00E94CB02C8010197F1F731
:1006300086E00E94CB02C8010197F1F78FE00E948B
:10064000CB028CEC9AE00197F1F7DF91CF911F91EB
:100650000F91089581E00E94CB0280E096E301971C
:10066000F1F7089582E00E94CB0280E096E30197C3
:10067000F1F70895CF93DF93EC0103C021960E9418
:10068000CF0288818823D1F7DF91CF910895662327
:1006900029F0613011F080E001C0805C80680E9428
:1006A000CB020895DF93CF93CDB7DEB72A970FB66D
:1006B000F894DEBF0FBECDBFBE016F5F7F4F4AE033
:1006C00050E00E94AA0E0E943A032A960FB6F894B0
:1006D000DEBF0FBECDBFCF91DF910895CF92DF92E5
:1006E000EF92FF920F931F93CF93DF936C01C09112
:1006F0008001D0918101FC01118210822481358119
:1007000046815781213031054105510509F45BC00F
:100710008E819F81A885B985281739074A075B070D
:1007200008F051C0211531054105510539F4888182
:10073000833021F42E853F8548895989F601208729
:10074000318742875387211531054105510581F1D4
:100750008EEFE82E8FEFF82E8FEF082F8FEF182FE8
:10076000E20EF31E041F151F8E819F81A885B98597
:100770000297A109B109E816F9060A071B0728F034
:1007800020E030E040E050E017C02A8130E040E057
:1007900050E0C801B7010E94690E9B01AC018A8933
:1007A0009B89AC89BD89280F391F4A1F5B1F04C074
:1007B0002E853F8548895989F601248735874687E4
:1007C000578780E001C081E0DF91CF911F910F91A9
:1007D000FF90EF90DF90CF9008950F931F93DF93DA
:1007E000CF9300D000D0CDB7DEB78B019C01E09154
:1007F0008001F0918101623071058105910508F455
:1008000055C086819781A085B185081719072A07E9
:100810003B0708F04BC08081823021F0833009F023
:1008200045C01EC07727632F522F412F82859385A5
:10083000A485B585480F591F6A1F7B1F980130702A
:10084000220F331FCE01019602E010E00E94D10C6E
:10085000882361F589819A819C0140E050E02AC09B
:10086000B901A80127E076956795579547952A9590
:10087000D1F782859385A485B585480F591F6A1FD6
:100880007B1F98012F773070220F331F220F331FE9
:10089000CE01019604E010E00E94D10C882331F4CF
:1008A00029813A814B815C815F7004C021E030E096
:1008B00040E050E0B901CA010F900F900F900F90E7
:1008C000CF91DF911F910F910895AF92BF92CF9278
:1008D000DF92EF92FF920F931F93CF93DF935C0110
:1008E000C0918001D0918101FC01C080D180089429
:1008F000C11CD11CC114D10409F48FC024853585D5
:1009000046855785211531054105510509F485C0F6
:10091000C6018F709070892B09F07AC02F5F3F4F0E
:100920004F4F5F4F248735874687578740855185CE
:1009300062857385411551056105710539F48C8116
:100940009D81C816D90608F463C067C08A8190E00B
:100950000197960114E0369527951A95E1F78223C1
:100960009323892B09F054C0CB01BA010E94ED03F7
:100970009B01AC01623071058105910510F481E0A5
:100980004DC08E819F81A885B985281739074A07F0
:100990005B0708F042C0F501208731874287538703
:1009A000C0918001D0918101BEEFEB2EBFEFFB2EF5
:1009B000BFEF0B2FBFEF1B2FE20EF31E041F151FFF
:1009C0008E819F81A885B9850297A109B109E81692
:1009D000F9060A071B0728F020E030E040E050E06D
:1009E00012C02A8130E040E050E0C801B7010E9407
:1009F000690E9B01AC018A899B89AC89BD89280F4E
:100A0000391F4A1F5B1FF5012487358746875787A3
:100A1000F501D182C08280E001C083E0DF91CF91F7
:100A20001F910F91FF90EF90DF90CF90BF90AF900C
:100A300008952F923F924F925F926F927F928F9282
:100A40009F92AF92BF92CF92DF92EF92FF920F935D
:100A50001F93CF93DF93E82FC0918001D091810144
:100A6000209711F486E002C1898180FD02C085E0F3
:100A7000FDC0EA8CFB8C0C8D1D8D4E2F592FCB01A8
:100A8000DA013C014D01E614F7040805190510F4DC
:100A900037014801EE88FF88088D198D1E8A1F8A4C
:100AA000188E198E611471048104910409F4DAC05E
:100AB0008A81A82EBB24CC24DD2429E0AA0CBB1CEF
:100AC000CC1CDD1C2A95D1F7E114F10401051105B8
:100AD000B1F1170128010894210831084108510893
:100AE000C401B3016150704080409040A60195015F
:100AF0000E94880E79018A01C201B101A601950107
:100B00000E94880EE216F30604071507C0F0882736
:100B10009927DC018A199B09AC09BD09822193211F
:100B2000A421B5218E8B9F8BA88FB98F681A790A63
:100B30008A0A9B0A2AA13BA14CA15DA133C02E8D3C
:100B40003F8D48A159A12AA33BA34CA35DA32AC072
:100B5000CA01B9010E94ED039B01AC01623071052D
:100B60008105910508F480C08E819F81A885B98593
:100B7000281739074A075B0708F076C02AA33BA36A
:100B80004CA35DA38E899F89A88DB98D8A0D9B1D6D
:100B9000AC1DBD1D8E8B9F8BA88FB98F6A187B08EB
:100BA0008C089D08A614B704C804D90488F2EE88FE
:100BB000FF88088D198DE60CF71C081D191DEE8A9B
:100BC000FF8A088F198F80908001909081019EEF9D
:100BD000A92E9FEFB92E9FEFC92E9FEFD92EA20EFF
:100BE000B31EC41ED51EF40186819781A085B185F0
:100BF0000297A109B109A816B906CA06DB06A0F535
:100C0000228130E040E050E0C601B5010E94690E4B
:100C10009B01AC01F40182899389A489B589280FCD
:100C2000391F4A1F5B1F2115310541055105E1F0B0
:100C300089E016950795F794E7948A95D1F78A810C
:100C400090E00197AA2797FDA095BA2FE822F922F4
:100C50000A231B232E0D3F1D401F511F2EA33FA310
:100C600048A759A780E002C0198281E0DF91CF91A7
:100C70001F910F91FF90EF90DF90CF90BF90AF90BA
:100C80009F908F907F906F905F904F903F902F90AC
:100C90000895AF92BF92CF92DF92EF92FF920F939F
:100CA0001F93DF93CF93CDB7DEB7AC970FB6F89411
:100CB000DEBF0FBECDBF7C016B01809180019091A2
:100CC0008101892B11F486E0B0C0CE010196D701D5
:100CD00013969C938E9312976115710539F083E0FA
:100CE000FDE0AF2EB12CAC0EBD1E28C0C7010E9486
:100CF0006E039BC0F701208131812F703070E5E0D9
:100D0000220F331FEA95E1F7C50100E210E00E94CF
:100D1000D10C882311F081E01FC09D85992309F42F
:100D200095C0888D953E29F09E3219F08F7383FF10
:100D30001DC0C7010E946504882371F4D7011C9669
:100D40004D915D916D917C911F9741155105610504
:100D5000710581F6882351F0F701148615861686F1
:100D60001786833019F0882309F05FC09601275F4A
:100D70003F4FF70184859585A685B7850097A10526
:100D8000B10509F443C0FE013D96AE014B5E5F4FD5
:100D90008081803251F0853009F485EED9018D9340
:100DA0009D013196E417F50799F78D89803299F006
:100DB0008EE2F90181939F01FE017596AE01485EB6
:100DC0005F4F8081803239F0D9018D939D0131963A
:100DD000E417F507B1F7888DF6018087FE013D968F
:100DE000448D558D668D778DD6014D935D936D93B2
:100DF0007C931397808D918D15969C938E93149769
:100E00008689978917969C938E931697F90110827D
:100E1000C7010E946504833041F4D7011C961D92DE
:100E20001D921D921C921F9780E0AC960FB6F8940D
:100E3000DEBF0FBECDBFCF91DF911F910F91FF900D
:100E4000EF90DF90CF90BF90AF90089583E084CF74
:100E50006F927F928F929F92AF92BF92CF92DF92CA
:100E6000EF92FF920F931F93CF93DF93EC016B01EF
:100E70007A0103C00894E11CF11CF70180818032E3
:100E8000C9F38F3219F40894E11CF11C1C821D82F5
:100E90001E821F82F7018081813238F4CE010E94C8
:100EA0006E03B82EF6011082A5C090E2692E772459
:100EB00073948BE0882E912C8C0C9D1CAA81BB8195
:100EC000FD018BE090E001C0619201972FEF8F3F11
:100ED0009207D1F738E020E0AA2402C03BE028E0E6
:100EE000F701EA0DF11D9081A3949132B0F09F3289
:100EF000A1F09E3211F0231728F0383071F49E32A1
:100F000069F30BC0892F81568A3108F49052FD0194
:100F1000E20FF11D90832F5FE3CF1B961C921B976E
:100F2000913210F41B967C92CE010E946E03B82E73
:100F30008823D1F54C855D856E857F852881398133
:100F40002F70307005E0220F331F0A95E1F7C601BC
:100F500000E210E00E94D10C882311F081E023C050
:100F6000F6018081882309F455C0F401808183FD56
:100F700015C0D6018A819B819C01F9012BE030E0EC
:100F8000215030408FEF2F3F380709F446C09C9125
:100F90008081981719F411963196F2CFCE010E94F4
:100FA0006504882339F2B82EE3E0BE1619F5EA810C
:100FB000FB8183858823E1F01DC0F401808184FFDB
:100FC00017C0EA0CF11CF60184899589A0E0B0E015
:100FD000DC0199278827228D338D40E050E0822B59
:100FE000932BA42BB52B8C839D83AE83BF8366CFBD
:100FF000B4E0BB2E8B2DDF91CF911F910F91FF900D
:10100000EF90DF90CF90BF90AF909F908F907F90A8
:101010006F900895A3E0BA2ECACFEA81FB81838541
:10102000882359F2E7CFEF92FF920F931F93DF933C
:10103000CF93CDB7DEB7AC970FB6F894DEBF0FBE37
:10104000CDBF8C01AB018091800190918101892BF2
:1010500011F486E031C0CE010196F80193838283BA
:101060003DE0E32EF12CEC0EFD1EC801B7010E94FD
:1010700028078823F1F48D858823C1F0888D84FFAB
:101080001AC0F70184899589A0E0B0E0DC019927B6
:101090008827228D338D40E050E0822B932BA42BA8
:1010A000B52BF80184839583A683B783C8010E947A
:1010B0006E03833009F484E0AC960FB6F894DEBF7B
:1010C0000FBECDBFCF91DF911F910F91FF90EF9099
:1010D0000895EF92FF920F931F93DF93CF93CDB7B5
:1010E000DEB7EC970FB6F894DEBF0FBECDBFAC01F4
:1010F00000918001109181010115110511F466E044
:1011000040C0F8011182CE010196988B8F876DE166
:10111000E62EF12CEC0EFD1ECE010D96B7010E94BD
:101120002807682F882369F58D8D882349F188A5C4
:1011300084FD26C0F70184899589A0E0B0E0DC0138
:1011400099278827228D338D40E050E0822B932B06
:10115000A42BB52BF801868F978FA0A3B1A3F7011D
:10116000848D958DA68DB78DF801828F938FA48F76
:10117000B58F168A178A108E118E81E0818301C087
:1011800063E0862FEC960FB6F894DEBF0FBECDBF9E
:10119000CF91DF911F910F91FF90EF9008954F92A3
:1011A0005F926F927F928F929F92AF92BF92CF92F7
:1011B000DF92EF92FF920F931F93CF93DF933C0147
:1011C0006B014A01C0918001D0918101FA01118225
:1011D0001082209711F486E0CAC0898180FD02C088
:1011E00085E0C5C02A8D3B8D4C8D5D8D8E899F8994
:1011F000A88DB98D281B390B4A0B5B0BCB01A0E0E6
:10120000B0E0281739074A075B0708F46901530162
:10121000412CE2E05E2EA3C02E893F89488D598D76
:10122000DA01C9019170A070B0700097A105B105F5
:1012300009F060C0DA01C90179E0B695A7959795E4
:1012400087957A95D1F7FA80FA94F822D1F421158E
:1012500031054105510529F46E8D7F8D88A199A135
:1012600006C06AA17BA18CA19DA10E94ED03623002
:1012700071058105910508F478C06AA37BA38CA34E
:101280009DA300918001109181012AA13BA14CA155
:101290005DA12250304040405040F8018681978146
:1012A000A085B1850297A109B109281739074A0716
:1012B0005B0708F05AC0628170E080E090E00E9415
:1012C000690E9B01AC01F80182899389A489B589D3
:1012D000280F391F4A1F5B1F211531054105510594
:1012E00009F443C02F0D311D411D511D2EA33FA3F5
:1012F00048A759A72E893F893170C201821B930BE1
:1013000076018C159D0508F47C016114710419F4B3
:1013100080E090E001C0C5014EA15FA168A579A55C
:1013200087010E94D10C882301F5C701A0E0B0E03D
:101330002E893F89488D598D280F391F4A1F5B1F01
:101340002E8B3F8B488F598FAE0CBF1CCE18DF08F9
:10135000F401808191818E0D9F1D91838083C11442
:10136000D10409F059CF80E002C0198281E0DF91F9
:10137000CF911F910F91FF90EF90DF90CF90BF9092
:10138000AF909F908F907F906F905F904F90089557
:10139000AF92BF92CF92DF92EF92FF920F931F9383
:1013A000CF93DF93B82EA92E6A017B012EEF31E097
:1013B00002E010E00E94D10C882311F023E033C03A
:1013C000CB2DDA2D8881998185559A4A11F022E03A
:1013D0002AC08B2D9A2DB701A60126E330E002E04A
:1013E00010E00E94D10C882339F4888199818654B9
:1013F000914411F420E017C08B2D9A2DB701A6015E
:1014000022E530E002E010E00E94D10C882311F0C8
:1014100021E009C020E0888199818654914409F433
:1014200021E081E02827822FDF91CF911F910F913A
:10143000FF90EF90DF90CF90BF90AF9008954F92C4
:101440005F926F927F928F929F92AF92BF92CF9254
:10145000DF92EF92FF920F931F93CF93DF93FC01E4
:101460005B013A01C0918001D0918101DA011D92A6
:101470001C92209711F486E0FDC0898190E080FDE8
:1014800002C085E0F7C0807490706115710589F421
:10149000892B59F080E090E040E050E060E070E09F
:1014A0000E942B0D882309F0E3C089818F7B8983FB
:1014B000DDC0892B51F48E899F89A88DB98D8070EC
:1014C0009E7F8E8B9F8BA88FB98F2A8D3B8D4C8DE5
:1014D0005D8D8E899F89A88DB98D281B390B4A0B8C
:1014E0005B0BC501A0E0B0E0281739074A075B078E
:1014F00008F459014F01412CA2E05A2EB3C02E89A5
:101500003F89488D598DC9019170892B09F06CC0B4
:10151000DA01C901F9E0B695A79597958795FA95EF
:10152000D1F7FA80FA94F822D1F42115310541055A
:10153000510529F46E8D7F8D88A199A106C06AA1FD
:101540007BA18CA19DA10E94ED03623071058105F4
:10155000910508F48DC06AA37BA38CA39DA3009181
:101560008001109181012AA13BA14CA15DA12250D3
:10157000304040405040F80186819781A085B18578
:101580000297A109B109281739074A075B0708F034
:101590006FC0628170E080E090E00E94690E9B0164
:1015A000AC01F80182899389A489B589280F391F74
:1015B0004A1F5B1F211531054105510509F458C02B
:1015C000BA01A9014F0D511D611D711D4EA35FA3ED
:1015D00068A779A780E090E00E942B0D882309F08E
:1015E00047C08981806489838E899F899170920127
:1015F000281B390B65012A153B0508F469017601A2
:1016000000E010E0C401B801A7010E942B0D88235F
:1016100079F58E899F89A88DB98D8E0D9F1DA01F8C
:10162000B11F9C018E8B9F8BA88FB98FD3018D9199
:101630009C9111978C0D9D1D8D939C933170232B44
:1016400069F480E090E040E050E060E070E00E94EB
:101650002B0D882369F489818F7B89838C0C9D1CD9
:10166000AC18BD08A114B10409F049CF80E002C054
:10167000198281E0DF91CF911F910F91FF90EF9040
:10168000DF90CF90BF90AF909F908F907F906F90A2
:101690005F904F9008956F927F928F929F92AF923A
:1016A000BF92CF92DF92EF92FF920F931F93DF933F
:1016B000CF93CDB7DEB7A4970FB6F894DEBF0FBEB9
:1016C000CDBF5C011092810110928001009709F456
:1016D000ECC00E949F0D80FF02C082E0EBC04E0173
:1016E0000894811C911CC40140E050E060E070E06F
:1016F0000E94C809813021F0CC24DD2476011BC072
:10170000C40140E050E060E070E02EEB31E000E129
:1017100010E00E94D10C882309F0C9C08D81882374
:1017200009F4C7C0C984DA84EB84FC84C401B7011E
:10173000A6010E94C809833009F4B9C0882309F0C2
:10174000B8C0CE010196B701A6012DE030E004E259
:1017500010E00E94D10C882309F0A9C08A859B85DE
:10176000BC0180E090E0611571058105910521F4CF
:10177000688D798D8A8D9B8D2C8130E040E050E022
:101780000E94690E3B014C018A819B81A0E0B0E080
:10179000C80ED91EEA1EFB1EF501C286D386E4865A
:1017A000F586898182832D813E81358324838F81D3
:1017B00098857C0100E010E0E114F10401051105B9
:1017C00021F4EC88FD880E891F898A819B81A0E025
:1017D000B0E0E81AF90A0A0B1B0BE618F70808092B
:1017E000190984E0369527958A95E1F7C901A0E0AB
:1017F000B0E0E81AF90A0A0B1B0BF501228130E070
:1018000040E050E0C801B7010E94880E2E5F3F4FB4
:101810004F4F5F4FF5012683378340875187273F1E
:10182000FFE03F07F0E04F07F0E05F0708F441C03A
:10183000275F3F4F4040504010F083E001C082E0FE
:10184000F5018083833029F488A199A1AAA1BBA1C5
:1018500009C0F50182859385A485B585860D971D00
:10186000A81DB91D86879787A08BB18BF501848150
:101870009581B4E096958795BA95E1F7A0E0B0E040
:101880002285338544855585820F931FA41FB51F7C
:10189000860D971DA81DB91D828B938BA48BB58BCC
:1018A0001182B0928101A092800180E003C081E0AA
:1018B00001C087E0A4960FB6F894DEBF0FBECDBF7F
:1018C000CF91DF911F910F91FF90EF90DF90CF901C
:1018D000BF90AF909F908F907F906F90089580EB16
:1018E00087BB82E58DB91EB8089584E191E0019728
:1018F000F1F708958FEF8FB9779BFECF8FB10895E1
:101900008FB9779BFECF8FB10895DF92EF92FF9250
:101910000F931F93D82E7A018B0187FF0BC087E7A7
:1019200040E050E060E070E00E94850C823098F565
:101930008FE7D822C29A0E947A0CC2980E947A0C31
:101940008D2D0E94800C812F9927AA27BB270E94EA
:10195000800CC801AA27BB270E94800CBB27A12F9F
:10196000902F8F2D0E94800C8E2D0E94800C80E481
:10197000D81611F485E906C088E4D81611F487E872
:1019800001C081E00E94800C1AE00E947A0C87FF5F
:1019900002C01150D1F71F910F91FF90EF90DF908F
:1019A0000895CF92DF92EF92FF920F931F93CF9300
:1019B000DF937C0169018091840183FD07C039E0D8
:1019C000440F551F661F771F3A95D1F781E50E9496
:1019D000850C882391F5C0E4DCE90E947A0C8F3FE6
:1019E00019F42197D1F729C08E3F39F5C114D104DC
:1019F00029F0E6010E947A0C2197E1F7E114F10445
:101A000049F0E8010E947A0CF70181937F01219748
:101A1000C9F705C0E8010E947A0C2197E1F7CC27AD
:101A2000DD27CC19DD09CE5FDD4FC01BD10B0E9435
:101A30007A0C2197E1F710E001C011E0C29A0E94F0
:101A40007A0C812FDF91CF911F910F91FF90EF9032
:101A5000DF90CF9008950F931F93CF93DF938C0166
:101A60000097D9F0EA010FC0F80181918F010E941F
:101A7000800C809182019091830101979093830162
:101A8000809382012197209709F452C080918201AE
:101A900090918301892B41F74BC041155105610598
:101AA0007105F9F08091840183FD07C0E9E0440FDE
:101AB000551F661F771FEA95D1F788E50E94850CB0
:101AC000882311F011E035C08FEF0E94800C8EEF5B
:101AD0000E94800C80E092E09093830180938201C9
:101AE00027C0C0918201D0918301229604C080E07A
:101AF0000E94800C21972097D1F70E947A0C8F7159
:101B0000853089F4C8E8D3E103C00E94750C2197A1
:101B10000E947A0C8F3F19F02097B9F704C0CD2BA3
:101B200011F010E001C011E0C29A0E947A0C01C0CD
:101B300010E0812FDF91CF911F910F910895CF92E7
:101B4000DF92EF92FF920F931F93DF93CF9300D01A
:101B500000D0CDB7DEB780918401882351F0C299BF
:101B600008C080E090E040E050E060E070E00E945B
:101B70002B0D0E946F0CC29A88E893E124E131E0BA
:101B8000F9013197F1F70197D9F71AE00E947A0C21
:101B90001150E1F780E440E050E060E070E00E9426
:101BA000850C813009F069C088E44AEA51E060E0C0
:101BB00070E00E94850C8130E1F56E010894C11C33
:101BC000D11C76018E010B5F1F4F0E947A0CF7012A
:101BD00081937F01E017F107C1F78B81813009F014
:101BE0004CC08C818A3A09F048C000E117E206C077
:101BF0000E94750C0150104009F43FC089EE40E08E
:101C000050E060E070E40E94850C882389F74CC0A6
:101C10000E947A0CF60181936F01EE15FF05C1F762
:101C2000898186FD03C004E0F02E28C01CE0F12E5F
:101C300025C089EE40E050E060E070E00E94850C35
:101C4000823028F0B1E4EB2EFF24F39404C0A9EE17
:101C5000EA2EF2E0FF2E00E117E205C00E94750CAB
:101C60000150104051F08E2D40E050E060E070E0F7
:101C70000E94850C882391F722C0FF24F0928401F2
:101C8000C29A0E947A0C80E0FF2009F481E00F9054
:101C90000F900F900F90CF91DF911F910F91FF90B8
:101CA000EF90DF90CF9008958AE740E050E060E049
:101CB00070E00E94850C882309F4AACFDECF80E56E
:101CC00040E052E060E070E00E94850C8823A9F6B5
:101CD000D5CF629FD001739FF001829FE00DF11D6F
:101CE000649FE00DF11D929FF00D839FF00D749F96
:101CF000F00D659FF00D9927729FB00DE11DF91F42
:101D0000639FB00DE11DF91FBD01CF01112408959E
:101D1000A1E21A2EAA1BBB1BFD010DC0AA1FBB1FEF
:101D2000EE1FFF1FA217B307E407F50720F0A21B61
:101D3000B30BE40BF50B661F771F881F991F1A94CE
:101D400069F760957095809590959B01AC01BD01F8
:101D5000CF010895FB019F01E8944230C4F0453261
:101D6000B4F44A3029F497FB1EF4909581959F4F67
:101D7000642F77270E947C11805D8A330CF0895D87
:101D80008193CB010097A1F716F45DE25193108285
:101D9000C9010C94E210AEE0B0E0E1EDFEE00C947D
:101DA0009E110D891E8986E08C831A8309838FEF2B
:101DB0009FE79E838D839E01275E3F4FCE01019654
:101DC0006F89788DA9010E94EF0E2F813885020F4F
:101DD000131FF80110822E96E4E00C94BA11ABE0C8
:101DE000B0E0E5EFFEE00C9490113C012B015A01AC
:101DF000FC0117821682838181FD03C06FEF7FEFA4
:101E0000C6C19AE0892E1E010894211C311CF301E1
:101E10002381F20123FD859123FF81912F018823E6
:101E200009F4B2C1853239F423FD859123FF8191F4
:101E30002F01853229F490E0B3010E94F210E7CF20
:101E4000982FFF24EE249924FFE1FF15D0F09B3258
:101E500069F09C3228F4903259F0933291F40EC01C
:101E60009D3249F0903369F441E024C052E0F52AF4
:101E700084E0F82A28C098E0F92A25C0E0E1FE2A8B
:101E800022C0F7FC29C0892F80538A3070F4F6FEF7
:101E900005C0989C902C1124980E15C0E89CE02C4D
:101EA0001124E80EF0E2FF2A0EC09E3229F4F6FC5F
:101EB0006BC140E4F42A07C09C3619F450E8F52AB7
:101EC00002C0983649F4F20123FD959123FF9191C8
:101ED0002F01992309F0B8CF892F8554833018F04A
:101EE0008052833038F444E050E0A40EB51E5FE326
:101EF00059830FC0933631F0933779F0933509F059
:101F000056C020C0F5018081898342E050E0A40ED4
:101F1000B51E610101E010E012C0F501C080D18062
:101F2000F6FC03C06FEF7FEF02C0692D70E042E066
:101F300050E0A40EB51EC6010E94D7108C015FE7C9
:101F4000F52214C0F501C080D180F6FC03C06FEF0C
:101F50007FEF02C0692D70E042E050E0A40EB51E94
:101F6000C6010E94CC108C0150E8F52AF3FE07C090
:101F70001AC080E290E0B3010E94F210EA948E2D24
:101F800090E008171907A8F30EC0F601F7FC859139
:101F9000F7FE81916F0190E0B3010E94F210E11011
:101FA000EA94015010400115110579F7EAC0943602
:101FB00011F0993669F5F7FE08C0F50120813181ED
:101FC0004281538184E090E00AC0F50180819181D3
:101FD0009C01442737FD4095542F82E090E0A80EE5
:101FE000B91E9FE6F92257FF09C0509540953095DC
:101FF00021953F4F4F4F5F4FE0E8FE2ACA01B901DC
:10200000A1012AE030E00E941E11D82ED21840C053
:10201000953729F41F2D1F7E2AE030E01DC01F2DAB
:10202000197F9F3661F0903720F4983509F0ACC0E5
:102030000FC0903739F0983709F0A6C004C028E0E7
:1020400030E00AC0106114FD146020E130E004C0EB
:1020500014FD166020E132E017FF08C0F501608131
:1020600071818281938144E050E008C0F501808154
:102070009181BC0180E090E042E050E0A40EB51EEA
:10208000A1010E941E11D82ED2188FE7F82EF1223E
:10209000F6FE0BC05EEFF522D91438F4F4FE07C04B
:1020A000F2FC05C08FEEF82202C01D2D01C0192DD3
:1020B000F4FE0DC0FE01ED0DF11D8081803319F499
:1020C00099EEF92208C01F5FF2FE05C003C08F2DF4
:1020D000867809F01F5F0F2DF3FC14C0F0FE0FC0CF
:1020E0001E1510F09D2C0BC09D2C9E0C911A1E2DC0
:1020F00006C080E290E0B3010E94F2101F5F1E153F
:10210000C0F304C01E1510F4E11A01C0EE2404FF50
:102110000FC080E390E0B3010E94F21002FF1DC0E7
:1021200001FD03C088E790E00EC088E590E00BC099
:10213000802F867891F001FF02C08BE201C080E21F
:10214000F7FC8DE290E0B3010E94F21006C080E33C
:1021500090E0B3010E94F2109A94D914C0F3DA947B
:10216000F101ED0DF11D808190E0B3010E94F210AC
:10217000DD20A9F706C080E290E0B3010E94F210D2
:10218000EA94EE20C1F743CEF30166817781CB015B
:102190002B96E2E10C94AC11FC010590615070406B
:1021A0000110D8F7809590958E0F9F1F0895FC0120
:1021B0006150704001900110D8F7809590958E0F76
:1021C0009F1F0895DC01FC01672F71917723E1F7D0
:1021D000329704C07C916D9370836291AE17BF07F4
:1021E000C8F308950F931F93CF93DF938C01EB01F6
:1021F0008B8181FF1BC082FF0DC02E813F818C81AE
:102200009D812817390764F4E881F9810193F983E6
:10221000E88306C0E885F985802F0995892B31F47C
:102220008E819F8101969F838E8302C00FEF1FEFE7
:10223000C801DF91CF911F910F910895FA01AA274C
:10224000283051F1203181F1E8946F936E7F6E5FF9
:102250007F4F8F4F9F4FAF4FB1E03ED0B4E03CD0A7
:10226000670F781F891F9A1FA11D680F791F8A1F8A
:10227000911DA11D6A0F711D811D911DA11D20D0F1
:1022800009F468943F912AE0269F11243019305DAB
:102290003193DEF6CF010895462F4770405D41939C
:1022A000B3E00FD0C9F7F6CF462F4F70405D4A33E9
:1022B00018F0495D31FD4052419302D0A9F7EACFB1
:1022C000B4E0A6959795879577956795BA95C9F7E0
:1022D00000976105710508959B01AC010A2E0694D3
:1022E0005795479537952795BA95C9F7620F731F8C
:1022F000841F951FA01D0895AA1BBB1B51E107C099
:10230000AA1FBB1FA617B70710F0A61BB70B881F85
:10231000991F5A95A9F780959095BC01CD01089514
:102320002F923F924F925F926F927F928F929F92E5
:10233000AF92BF92CF92DF92EF92FF920F931F93D3
:10234000CF93DF93CDB7DEB7CA1BDB0B0FB6F89484
:10235000DEBF0FBECDBF09942A88398848885F84C4
:102360006E847D848C849B84AA84B984C884DF8035
:10237000EE80FD800C811B81AA81B981CE0FD11D19
:102380000FB6F894DEBF0FBECDBFED010895F894EF
:02239000FFCF7D
:1023920044455649434520554E4D4F554E544544AC
:1023A20000444556494345204D4F554E544544003F
:1023B2004E6F207661696C642046415420706172D0
:1023C200746974696F6E206F6E2066696C65206433
:1023D2006973636B004572726F7220696E20746854
:1023E2006520646973636B2066756E6374696F6ED2
:1023F20000436F756C64206E6F7420626520696E95
:10240200697469616C697A65642064756520746FAA
:102412002061206469736B206572726F72206F7223
:10242200206E6F206D656469756D002F696E666F31
:102432002F6F7069732E747874004572726F7220F8
:102442006F70656E696E672066696C6500457272B1
:102452006F722072656164696E67202066696C65BF
:10246200002F646174612F64616E652E747874004C
:1024720054656D7020002E0054656D702025642E09
:102482002564200A004572726F7220777269747433
:10249200696E672066696C65004B455920444F5749
:1024A2004E006272616B20637A756A6E696B6100BD
:00000001FF
