:100000000C942A000C943F000C943F000C943F0089
:100010000C943F000C943F000C943F000C943F0064
:100020000C943F000C943F000C943F000C943F0054
:100030000C943F000C943F000C943F000C943F0044
:100040000C943F000C943F000C943F000C943F0034
:100050000C943F0011241FBECFE5D8E0DEBFCDBF1A
:1000600010E0A0E6B0E0E0EDF4E002C005900D92F3
:10007000AA37B107D9F70E94BD000C9466020C9410
:100080000000C398BB9A8FE295E00197F1F7BB9807
:100090008DED8A95F1F786B3E9E8F4E03197F1F751
:1000A00088700895009741F4C398BB9A8DED8A95A6
:1000B000F1F7BB9886B30895019749F4C398BB9AAA
:1000C00082E18A95F1F7BB988AEC8A95F1F7089559
:1000D000BB9AC39883E08A95F1F7BB9883E38A952E
:1000E000F1F786B395EA9A95F1F786958695869508
:1000F000817008950F931F93CF93DF93C0E0D0E0FA
:10010000082F10E0C8010C2E02C0959587950A941F
:10011000E2F780FF03C081E090E002C080E090E061
:100120000E9452002196C830D10561F7DF91CF912E
:100130001F910F910895EF92FF921F93CF93DF933A
:1001400010E0C0E0D0E081E0E82EF12C0E946800D1
:10015000882341F0C7010C2E02C0880F991F0A9412
:10016000E2F7182B2196C830D10581F7812FDF9156
:10017000CF911F91FF90EF900895AF92BF92CF92D1
:10018000DF92FF920F931F93CF93DF930E9486011C
:1001900088E893E124E131E0F9013197F1F7019723
:1001A000D9F780E060E00E94FA0180E690E00E94CA
:1001B000ED0180E197E224E131E0F9013197F1F7B7
:1001C0000197D9F70E94DD0131E7A32E32E0B32E6B
:1001D00024E1C22E21E0D22E0E944100882309F0A2
:1001E0004CC08CEC0E947A0084E40E947A000E9449
:1001F00068008823E1F30E9441008CEC0E947A00A1
:100200008EEB0E947A000E949B00082F10E00E9453
:100210009B00F82E0E944100E801CF70D0700E9430
:10022000DD0180E7F82294E0169507959A95E1F7AD
:10023000C8018F0D911D0E94050286E690E00E9484
:10024000ED01C130D10521F480E090E00E9405026B
:10025000CA9DC001CB9D900DDA9D900D11240E9486
:10026000050288E690E00E94ED0188E893E1F6013E
:100270003197F1F70197D9F7AFCF0E94410088235A
:1002800009F4AACF0E94DD018BE690E00E94ED0107
:1002900088E893E1F6013197F1F70197D9F79CCF00
:1002A000D99A80FF02C0DA9A01C0DA9881FF02C0B1
:1002B000DB9A01C0DB9882FF02C0DC9A01C0DC98A7
:1002C00083FF02C0DD9A01C0DD98D9980895FF929E
:1002D0000F931F93F82E82958F700E9450010BE4AC
:1002E00011E0C8010197F1F78F2D0E945001C8015C
:1002F0000197F1F71F910F91FF900895D8980E94F0
:1003000067010895D89A0E94670108950F931F937B
:10031000CF93DF93D09AD19A8AB38C638ABBD89853
:10032000D9981BBA22EC31E044E151E0C4E1D1E0BC
:10033000CA010197F1F721503040C1F783E00E94D4
:10034000500187E49CE20197F1F783E00E9450019D
:10035000CE010197F1F783E00E945001CE01019791
:10036000F1F782E00E94500106E610E2C801019711
:10037000F1F788E20E947E01C8010197F1F788E059
:100380000E947E01C8010197F1F781E00E947E0181
:10039000C8010197F1F786E00E947E01C80101972C
:1003A000F1F78FE00E947E018CEC9AE00197F1F763
:1003B000DF91CF911F910F91089581E00E947E01FE
:1003C00080E096E30197F1F7089582E00E947E01B4
:1003D00080E096E30197F1F70895CF93DF93EC0166
:1003E00003C021960E94820188818823D1F7DF9182
:1003F000CF910895662329F0613011F080E001C0AB
:10040000805C80680E947E010895DF93CF93CDB712
:10041000DEB72A970FB6F894DEBF0FBECDBFBE0180
:100420006F5F7F4F4AE050E00E9421020E94ED0181
:100430002A960FB6F894DEBF0FBECDBFCF91DF91E5
:100440000895FB019F01E8944230C4F04532B4F4B2
:100450004A3029F497FB1EF4909581959F4F642FA5
:1004600077270E945202805D8A330CF0895D819368
:10047000CB010097A1F716F45DE251931082C901F8
:100480000C944202DC01FC01672F71917723E1F7A4
:10049000329704C07C916D9370836291AE17BF0751
:1004A000C8F30895AA1BBB1B51E107C0AA1FBB1FBD
:1004B000A617B70710F0A61BB70B881F991F5A95F0
:1004C000A9F780959095BC01CD010895F894FFCFD0
:1004D00068656C6C6F002E002043006272616B20B7
:0A04E000637A756A6E696B610000B3
:00000001FF
