:100000000C942A000C943F000C943F000C943F0089
:100010000C943F000C943F000C943F000C943F0064
:100020000C943F000C943F000C943F000C943F0054
:100030000C943F000C943F000C943F000C943F0044
:100040000C943F000C943F000C943F000C943F0034
:100050000C943F0011241FBECFE5D8E0DEBFCDBF1A
:1000600010E0A0E6B0E0ECEFF4E002C005900D92E5
:10007000AA36B107D9F70E949C000C947C020C941C
:10008000000084EA86BF06B607FEFDCF089584E926
:1000900086BF089584E886BF06B607FEFDCF83B10C
:1000A000089583B984E886BF06B607FEFDCF08959C
:1000B000982F84EA86BF06B607FEFDCF80ED83B990
:1000C00084E886BF06B607FEFDCF93B984E886BFF5
:1000D00006B607FEFDCF63B984E886BF06B607FE05
:1000E000FDCF84E986BF0895982F84EA86BF06B6BF
:1000F00007FEFDCF80ED83B984E886BF06B607FE14
:10010000FDCF93B984E886BF06B607FEFDCF84EA2B
:1001100086BF06B607FEFDCF81ED83B984E886BFB2
:1001200006B607FEFDCF84E886BF06B607FEFDCF04
:1001300083B194E996BF08956F927F928F929F92B8
:10014000AF92BF92CF92DF92EF92FF920F931F93E5
:10015000CF93DF9383E080B981B1836081B980E080
:1001600060E00E94580082E06AE00E9458000E940D
:100170009C0188EE93E024E131E0F9013197F1F739
:100180000197D9F780E060E00E941002C4E1D1E05D
:1001900080E00E947400C82E81E00E947400E82E66
:1001A00082E00E947400082F84E00E947400A82E50
:1001B00085E00E947400882E86E00E947400682EFC
:1001C00010E0C8018077907074E0969587957A95D5
:1001D000E1F70E941B02C8018F7090700E941B0201
:1001E00080E690E00E940302FF24C70180779070B0
:1001F00064E0969587956A95E1F70E941B02C70116
:100200008F7090700E941B0280E690E00E940302B3
:10021000DD24C6018077907054E0969587955A95B5
:10022000E1F70E941B02C6018F7090700E941B02B2
:1002300080E061E00E941002BB24C50180779070CD
:1002400044E0969587954A95E1F70E941B02C50107
:100250008F7090700E941B0282E690E00E94030261
:100260009924C4018077907034E0969587953A95EB
:10027000E1F70E941B02C4018F7090700E941B0264
:1002800082E690E00E94030284E690E00E9403026E
:100290007724C3018077907024E0969587952A95FE
:1002A000E1F70E941B02C3018F7090700E941B0235
:1002B00087E690E00E94030288E893E1FE0131970F
:1002C000F1F70197D9F70E94F30162CFD99A80FF25
:1002D00002C0DA9A01C0DA9881FF02C0DB9A01C03D
:1002E000DB9882FF02C0DC9A01C0DC9883FF02C069
:1002F000DD9A01C0DD98D9980895FF920F931F935E
:10030000F82E82958F700E9466010BE411E0C801FF
:100310000197F1F78F2D0E946601C8010197F1F74F
:100320001F910F91FF900895D8980E947D01089524
:10033000D89A0E947D0108950F931F93CF93DF9366
:10034000D09AD19A8AB38C638ABBD898D9981BBAB1
:1003500022EC31E044E151E0C4E1D1E0CA0101976F
:10036000F1F721503040C1F783E00E94660187E435
:100370009CE20197F1F783E00E946601CE010197AC
:10038000F1F783E00E946601CE010197F1F782E068
:100390000E94660106E610E2C8010197F1F788E2C3
:1003A0000E949401C8010197F1F788E00E9494012E
:1003B000C8010197F1F781E00E949401C8010197FB
:1003C000F1F786E00E949401C8010197F1F78FE0F0
:1003D0000E9494018CEC9AE00197F1F7DF91CF91A4
:1003E0001F910F91089581E00E94940180E096E3AF
:1003F0000197F1F7089582E00E94940180E096E36E
:100400000197F1F70895CF93DF93EC0103C0219694
:100410000E94980188818823D1F7DF91CF910895B8
:10042000662329F0613011F080E001C0805C8068B3
:100430000E9494010895DF93CF93CDB7DEB72A973A
:100440000FB6F894DEBF0FBECDBFBE016F5F7F4F0A
:100450004AE050E00E9437020E9403022A960FB63B
:10046000F894DEBF0FBECDBFCF91DF910895FB01A1
:100470009F01E8944230C4F04532B4F44A3029F484
:1004800097FB1EF4909581959F4F642F77270E94CC
:100490006802805D8A330CF0895D8193CB010097FF
:1004A000A1F716F45DE251931082C9010C94580231
:1004B000DC01FC01672F71917723E1F7329704C0CB
:1004C0007C916D9370836291AE17BF07C8F3089556
:1004D000AA1BBB1B51E107C0AA1FBB1FA617B7076A
:1004E00010F0A61BB70B881F991F5A95A9F7809586
:0C04F0009095BC01CD010895F894FFCF59
:0A04FC003A002E00323000720000BA
:040000030000008277
:00000001FF
