:100000000C942A000C9434000C9434000C943400AA
:100010000C9434000C9434000C9434000C94340090
:100020000C9434000C9434000C9434000C94340080
:100030000C9434000C9434000C9434000C94340070
:100040000C9434000C9434000C9434000C94340060
:100050000C94340011241FBECFE5D8E0DEBFCDBF25
:100060000E9436000C946A000C9400008FEF8ABB4B
:1000700094B39F6094BB8E988BBB83E085BB20E0DC
:1000800040E05CE602C021E012C0222381F48699A0
:10009000FECFCA010197F1F795B385B3990F869505
:1000A00086958695982B95BB8699F3CFECCF869B4A
:1000B000ECCF2F5FCA010197F1F795B385B3880F95
:1000C000880F880F9695892B85BB213099F38699E7
:0800D000F1CFDBCFF894FFCF64
:00000001FF
