:100000000C942A000C9447000C9447000C94470071
:100010000C9447000C9447000C9447000C94490042
:100020000C9447000C9447000C9481000C944700FA
:100030000C9447000C9447000C9447000C94470024
:100040000C9447000C9447000C9447000C94470014
:100050000C94470011241FBECFE5D8E0DEBFCDBF12
:1000600010E0A0E6B0E0E8E5F2E002C005900D92F5
:10007000A436B107D9F710E0A4E6B0E001C01D92A4
:10008000A536B107E1F70E940F010C942A010C94E8
:1000900000001F920F920FB60F9211248F93809140
:1000A00060008F5F80936000809160008A3018F15B
:1000B00010926000809161008F5F80936100809159
:1000C00061008A30C0F010926100809162008F5F01
:1000D00080936200809162008A3068F01092620022
:1000E000809163008F5F80936300809163008A300A
:1000F00010F0109263008F910F900FBE0F901F9021
:1001000018951F920F920FB60F9211242F938F9371
:100110009F93EF93FF93809164008F5F80936400BF
:1001200080916400843010F010926400209164008B
:1001300081E090E002C0880F991F2A95E2F7809530
:100140008BBBE0916400F0E0E05AFF4F8081882390
:1001500011F480EC85BBE0916400F0E0E05AFF4FC1
:100160008081813011F489EF85BBE0916400F0E07B
:10017000E05AFF4F8081823011F484EA85BBE09120
:100180006400F0E0E05AFF4F8081833011F480EB8F
:1001900085BBE0916400F0E0E05AFF4F808184303D
:1001A00011F489E985BBE0916400F0E0E05AFF4F6B
:1001B0008081853011F482E985BBE0916400F0E034
:1001C000E05AFF4F8081863011F482E885BBE091D0
:1001D0006400F0E0E05AFF4F8081873011F488EF2F
:1001E00085BBE0916400F0E0E05AFF4F80818830E9
:1001F00011F480E885BBE0916400F0E0E05AFF4F25
:100200008081893011F480E985BBFF91EF919F9146
:100210008F912F910F900FBE0F901F9018958FEF19
:100220008ABB84BB15BA83B7886083BF83B78560F8
:1002300083BF84E18CBF89B7826089BF8EB58D6032
:100240008EBD80E39AE29BBD8ABD89B7806189BF7C
:080250007894FFCFF894FFCF72
:04025800080909097F
:00000001FF
