:100000000C942A000C948D000C9447000C9447002B
:100010000C9447000C9447000C9447000C94470044
:100020000C9447000C9447000C9447000C94470034
:100030000C9447000C9465000C9447000C94470006
:100040000C9447000C9447000C9447000C94470014
:100050000C94470011241FBECFE5D8E0DEBFCDBF12
:1000600010E0A0E6B0E0E4EBF1E002C005900D92F4
:10007000AE36B107D9F710E0AEE6B0E001C01D9290
:10008000AF36B107E1F70E94BA000C94D8000C9487
:10009000000090BD89B988E98AB986E880BD0895D5
:1000A0005D9BFECF8CB908955F9BFECF8CB1089508
:1000B00020E0FC01E20FF11DE081EE2329F05D9BC1
:1000C000FECFECB92F5FF5CF08951F920F920FB6B8
:1000D0000F9211248F935F9BFECF8CB180936E00A3
:1000E0008F910F900FBE0F901F901895989B0AC08C
:1000F00080E690E00E9458005D9BFECF8AE08CB9BC
:1001000015BA089581E085BB87E690E00E9458000B
:100110005D9BFECF8AE08CB908951F920F920FB6B7
:100120000F9211242F933F934F935F936F937F937D
:100130008F939F93AF93BF93EF93FF930E947600AB
:1001400088E893E124E131E0F9013197F1F7019773
:10015000D9F7FF91EF91BF91AF919F918F917F91CF
:100160006F915F914F913F912F910F900FBE0F9024
:100170001F90189581E084BB85BB8A988BB78064FB
:100180008BBF85B7826085BF85B78E7F85BF78942A
:1001900010BC87E489B988E98AB986E880BD809176
:1001A0006E008136E1F70E94760010926E00F7CF64
:0401B000F894FFCFF1
:0E01B4006C6564206F6E006C6564206F6600E1
:00000001FF
