:100000000C942A000C943E000C943C000C943C0090
:100010000C943C000C943C000C943C000C943C0070
:100020000C943C000C943C000C943C000C943C0060
:100030000C943C000C943C000C943C000C943C0050
:100040000C943C000C943C000C943C000C943C0040
:100050000C943C0011241FBECFE5D8E0DEBFCDBF1D
:1000600010E0A0E6B0E001C01D92A136B107E1F7B3
:100070000E944F000C9461000C9400001F920F929C
:100080000FB60F9211248F93809160008F5F809341
:1000900060008F910F900FBE0F901F9018958FEFFB
:1000A00087BBBA9885B7826085BF85B78E7F85BFCD
:1000B0008BB780648BBF78948091600080958BBBF8
:0600C000FBCFF894FFCF16
:00000001FF
