:100000000C942A000C9447000C9447000C94470071
:100010000C9447000C9447000C9447000C94470044
:100020000C9447000C9447000C9449000C94470032
:100030000C9447000C9447000C9447000C94470024
:100040000C9447000C9447000C9447000C94470014
:100050000C94470011241FBECFE5D8E0DEBFCDBF12
:1000600010E0A0E6B0E0EEECF6E002C005900D92E4
:10007000A438B107D9F710E0A4E8B0E001C01D92A0
:10008000A538B107E1F70E9429010C9465030C948F
:1000900000001F920F920FB60F9211242F933F93DF
:1000A0004F935F936F937F938F939F93AF93BF9380
:1000B000EF93FF939E9930C080917F0090918000D4
:1000C000883C91054CF580917F00909180000196CD
:1000D0009093800080937F0060917F0070918000FA
:1000E00080E694E50E94EB0277BD66BD2091810019
:1000F0003091820066B577B580E090E0442737FD07
:100100004095542F0E94CC0224E630E040E050E0BD
:100110000E94FE023BBD2ABD9D992FC080917F00A9
:100120009091800002974CF180917F009091800027
:1001300001979093800080937F0060917F00709181
:10014000800080E694E50E94EB0277BD66BD2091B9
:1001500081003091820066B577B580E090E0442759
:1001600037FD4095542F0E94CC0224E630E040E059
:1001700050E00E94FE023BBD2ABD9C9926C08091A2
:1001800081009091820084369105FCF48091810079
:10019000909182000196909382008093810020913B
:1001A00081003091820066B577B580E090E0442709
:1001B00037FD4095542F0E94CC0224E630E040E009
:1001C00050E00E94FE023BBD2ABD9B9926C0809153
:1001D00081009091820018161906FCF4809181002C
:1001E00090918200019790938200809381002091EA
:1001F00081003091820066B577B580E090E04427B9
:1002000037FD4095542F0E94CC0224E630E040E0B8
:1002100050E00E94FE023BBD2ABD9A9909C081E0D0
:100220008093840081E090E09093800080937F0031
:10023000FF91EF91BF91AF919F918F917F916F91BE
:100240005F914F913F912F910F900FBE0F901F9094
:1002500018950F931F93CF93DF93A6988CE18EBDD3
:1002600082EA8FBD83B7886083BF83B7856083BF11
:1002700087ED8CBF89B7826089BF80E798E097BD22
:1002800086BD209181003091820066B577B580E00F
:1002900090E0442737FD4095542F0E94CC0224E67D
:1002A00030E040E050E00E94FE023BBD2ABD81B339
:1002B000806381BBBB9A0E94310280E197E224E116
:1002C00031E0F9013197F1F70197D9F780E060E06B
:1002D0000E94A50201E010E0C0E0D8ED7894809182
:1002E0008400813009F061C080917F00909180008E
:1002F000883C91056CF580917F009091800001967B
:100300009093800080937F0060917F0070918000C7
:1003100080E694E50E94EB0277BD66BD20918100E6
:100320003091820066B577B580E090E0442737FDD4
:100330004095542F0E94CC0224E630E040E050E08B
:100340000E94FE023BBD2ABDCE010197F1F72DC0F0
:1003500080917F0090918000883C910531F510924A
:1003600084001093800000937F0060917F00709163
:10037000800080E694E50E94EB0277BD66BD209187
:1003800081003091820066B577B580E090E0442727
:1003900037FD4095542F0E94CC0224E630E040E027
:1003A00050E00E94FE023BBD2ABD80E690E00E9424
:1003B000980280917F00909180000E94B0028CE6AC
:1003C00090E00E94980280E061E00E94A50280E730
:1003D00090E00E94980280918100909182000E949A
:1003E000B0028DE790E00E949802CE010197F1F7EC
:1003F0000E94880273CFD99A80FF02C0DA9A01C0A6
:10040000DA9881FF02C0DB9A01C0DB9882FF02C04C
:10041000DC9A01C0DC9883FF02C0DD9A01C0DD9840
:10042000D9980895FF920F931F93F82E82958F709D
:100430000E94FB010BE411E0C8010197F1F78F2D39
:100440000E94FB01C8010197F1F71F910F91FF90E6
:100450000895D8980E9412020895D89A0E94120214
:1004600008950F931F93CF93DF93D09AD19A8AB3B5
:100470008C638ABBD898D9981BBA22EC31E044E14E
:1004800051E0C4E1D1E0CA010197F1F721503040B9
:10049000C1F783E00E94FB0187E49CE20197F1F73A
:1004A00083E00E94FB01CE010197F1F783E00E94F7
:1004B000FB01CE010197F1F782E00E94FB0106E605
:1004C00010E2C8010197F1F788E20E942902C801F1
:1004D0000197F1F788E00E942902C8010197F1F71E
:1004E00081E00E942902C8010197F1F786E00E948D
:1004F0002902C8010197F1F78FE00E9429028CECD4
:100500009AE00197F1F7DF91CF911F910F91089534
:1005100081E00E94290280E096E30197F1F70895B7
:1005200082E00E94290280E096E30197F1F70895A6
:10053000CF93DF93EC0103C021960E942D028881A6
:100540008823D1F7DF91CF910895662329F0613098
:1005500011F080E001C0805C80680E94290208954B
:10056000DF93CF93CDB7DEB72A970FB6F894DEBFEF
:100570000FBECDBFBE016F5F7F4F4AE050E00E94CB
:1005800034030E9498022A960FB6F894DEBF0FBE7D
:10059000CDBFCF91DF910895629FD001739FF0018D
:1005A000829FE00DF11D649FE00DF11D929FF00D03
:1005B000839FF00D749FF00D659FF00D9927729F3A
:1005C000B00DE11DF91F639FB00DE11DF91FBD01C5
:1005D000CF011124089597FB092E07260AD077FD35
:1005E00004D02ED006D000201AF4709561957F4F6C
:1005F0000895F6F7909581959F4F0895A1E21A2EE0
:10060000AA1BBB1BFD010DC0AA1FBB1FEE1FFF1FB6
:10061000A217B307E407F50720F0A21BB30BE40B06
:10062000F50B661F771F881F991F1A9469F760954D
:100630007095809590959B01AC01BD01CF01089507
:10064000AA1BBB1B51E107C0AA1FBB1FA617B707F8
:1006500010F0A61BB70B881F991F5A95A9F7809514
:100660009095BC01CD010895FB019F01E8944230B3
:10067000C4F04532B4F44A3029F497FB1EF4909547
:1006800081959F4F642F77270E942003805D8A33D6
:100690000CF0895D8193CB010097A1F716F45DE220
:1006A00051931082C9010C945503DC01FC01672FA2
:1006B00071917723E1F7329704C07C916D93708339
:0E06C0006291AE17BF07C8F30895F894FFCFFC
:1006CE006672657175656E63793A200020487A000E
:1006DE0064757479206379636C653A200025000196
:0406EE0000320000D6
:00000001FF
