:100000000C942A000C943F000C943F000C943F0089
:100010000C943F000C943F000C943F000C943F0064
:100020000C943F000C943F000C943F000C943F0054
:100030000C943F000C943F000C943F000C943F0044
:100040000C943F000C943F000C943F000C943F0034
:100050000C943F0011241FBECFE5D8E0DEBFCDBF1A
:1000600010E0A0E6B0E0E8E1F4E002C005900D92F7
:10007000A636B107D9F70E944B000C940A020C94E3
:10008000000080EB87BB81E58DB908958FB9779B20
:10009000FECF8FB10895CF92DF92EF92FF920F9330
:1000A0001F93CF93DF9380EB87BB81E58DB90E94CF
:1000B000E90080E197E224E131E0F9013197F1F7BD
:1000C0000197D9F780E060E00E945D01CC24C394E1
:1000D00090EAD92EC4E1D1E0C498CFB8779BFECF87
:1000E0008FB1DFB8779BFECF6FB11FB8779BFECF84
:1000F0002FB1C49A70E06F707070762F6627620F10
:10010000711D80E090E025EC34E040E050E00E947A
:1001100084017B018C0120E137E240E050E00E9445
:10012000A301DA01C9010E94680180E690E00E9403
:100130005001C801B70120E137E240E050E00E94E1
:10014000A301DC01CB010E94680182E690E00E94DD
:10015000500180E197E2FE013197F1F70197D9F75D
:100160000E944001B9CFD99A80FF02C0DA9A01C03B
:10017000DA9881FF02C0DB9A01C0DB9882FF02C0DF
:10018000DC9A01C0DC9883FF02C0DD9A01C0DD98D3
:10019000D9980895FF920F931F93F82E82958F7030
:1001A0000E94B3000BE411E0C8010197F1F78F2D15
:1001B0000E94B300C8010197F1F71F910F91FF90C2
:1001C0000895D8980E94CA000895D89A0E94CA003B
:1001D00008950F931F93CF93DF93D09AD19A8AB348
:1001E0008C638ABBD898D9981BBA22EC31E044E1E1
:1001F00051E0C4E1D1E0CA010197F1F7215030404C
:10020000C1F783E00E94B30087E49CE20197F1F715
:1002100083E00E94B300CE010197F1F783E00E94D2
:10022000B300CE010197F1F782E00E94B30006E629
:1002300010E2C8010197F1F788E20E94E100C801CD
:100240000197F1F788E00E94E100C8010197F1F7FA
:1002500081E00E94E100C8010197F1F786E00E9469
:10026000E100C8010197F1F78FE00E94E1008CECFA
:100270009AE00197F1F7DF91CF911F910F910895C7
:1002800081E00E94E10080E096E30197F1F7089594
:1002900082E00E94E10080E096E30197F1F7089583
:1002A000CF93DF93EC0103C021960E94E500888183
:1002B0008823D1F7DF91CF910895662329F061302B
:1002C00011F080E001C0805C80680E94E100089528
:1002D000DF93CF93CDB7DEB72A970FB6F894DEBF82
:1002E0000FBECDBFBE016F5F7F4F4AE050E00E945E
:1002F000C5010E9450012A960FB6F894DEBF0FBECA
:10030000CDBFCF91DF910895629FD001739FF0011F
:10031000829FE00DF11D649FE00DF11D929FF00D95
:10032000839FF00D749FF00D659FF00D9927729FCC
:10033000B00DE11DF91F639FB00DE11DF91FBD0157
:10034000CF0111240895A1E21A2EAA1BBB1BFD01A7
:100350000DC0AA1FBB1FEE1FFF1FA217B307E407A4
:10036000F50720F0A21BB30BE40BF50B661F771FFC
:10037000881F991F1A9469F76095709580959095DC
:100380009B01AC01BD01CF010895FB019F01E894E1
:100390004230C4F04532B4F44A3029F497FB1EF4DD
:1003A000909581959F4F642F77270E94F601805D7D
:1003B0008A330CF0895D8193CB010097A1F716F485
:1003C0005DE251931082C9010C94E601DC01FC014D
:1003D000672F71917723E1F7329704C07C916D9379
:1003E00070836291AE17BF07C8F30895AA1BBB1BA9
:1003F00051E107C0AA1FBB1FA617B70710F0A61B25
:10040000B70B881F991F5A95A9F780959095BC0145
:08041000CD010895F894FFCF1F
:060418002C00204300004F
:00000001FF
