:100000000C942A000C9434000C9434000C943400AA
:100010000C9434000C9434000C9434000C94340090
:100020000C9434000C9434000C9434000C94340080
:100030000C9434000C9434000C9434000C94340070
:100040000C9434000C9434000C9434000C94340060
:100050000C94340011241FBECFE5D8E0DEBFCDBF25
:100060000E9436000C947B000C9400008AE18EBD47
:1000700082EA8FBD83B78A6783BF8FEF90E097BD19
:1000800086BD81B3806381BBBB9A20E06FEF70E0D7
:1000900049E95BE40EC01CBE822F90E099BD88BD8B
:1000A000FB01E81BF90BFBBDEABDCA010197F1F7A3
:1000B0002F5F2F3F81F720E030E01CBECB01821B79
:1000C000930B99BD88BD3BBD2ABDCA010197F1F7CD
:1000D0002F5F3F4F2F3F310581F720E02CBF19BC28
:1000E00018BC1BBC1ABCCA010197F1F72F5F2F3F48
:0A00F000A9F720E0D0CFF894FFCF6D
:00000001FF
