:100000000C942A000C943F000C943F000C943F0089
:100010000C943F000C943F000C943F000C943F0064
:100020000C943F000C943F000C943F000C943F0054
:100030000C943F000C943F000C943F000C943F0044
:100040000C943F000C943F000C943F000C943F0034
:100050000C943F0011241FBECFE5D8E0DEBFCDBF1A
:1000600010E0A0E6B0E0E8ECF2E002C005900D92EE
:10007000A636B107D9F70E9441000C9462010C9496
:1000800000000E94820080E060E00E94F60080E6AE
:1000900090E00E94E900FFCF919A80FF02C0929AFF
:1000A00001C0929881FF02C0939A01C0939882FF89
:1000B00002C0949A01C0949883FF02C0959A01C02F
:1000C000959891980895FF920F931F93F82E82951B
:1000D0008F700E944C000BE411E0C8010197F1F70A
:1000E0008F2D0E944C00C8010197F1F71F910F91CD
:1000F000FF90089590980E9463000895909A0E943E
:10010000630008950F931F93CF93DF93889A899A82
:1001100081B38C6381BB9098919812BA22EC31E044
:1001200044E151E0C4E1D1E0CA010197F1F7215067
:100130003040C1F783E00E944C0087E49CE20197C5
:10014000F1F783E00E944C00CE010197F1F783E0C4
:100150000E944C00CE010197F1F782E00E944C0012
:1001600006E610E2C8010197F1F788E20E947A00E2
:10017000C8010197F1F788E00E947A00C801019751
:10018000F1F781E00E947A00C8010197F1F786E05B
:100190000E947A00C8010197F1F78FE00E947A006F
:1001A0008CEC9AE00197F1F7DF91CF911F910F91BD
:1001B000089581E00E947A0080E096E30197F1F7CC
:1001C000089582E00E947A0080E096E30197F1F7BB
:1001D0000895CF93DF93EC0103C021960E947E0027
:1001E00088818823D1F7DF91CF910895662329F084
:1001F000613011F080E001C0805C80680E947A006C
:100200000895DF93CF93CDB7DEB72A970FB6F89452
:10021000DEBF0FBECDBFBE016F5F7F4F4AE050E033
:100220000E941D010E94E9002A960FB6F894DEBFD5
:100230000FBECDBFCF91DF910895FB019F01E894E0
:100240004230C4F04532B4F44A3029F497FB1EF42E
:10025000909581959F4F642F77270E944E01805D76
:100260008A330CF0895D8193CB010097A1F716F4D6
:100270005DE251931082C9010C943E01DC01FC0146
:10028000672F71917723E1F7329704C07C916D93CA
:1002900070836291AE17BF07C8F30895AA1BBB1BFA
:1002A00051E107C0AA1FBB1FA617B70710F0A61B76
:1002B000B70B881F991F5A95A9F780959095BC0197
:0802C000CD010895F894FFCF71
:0602C80068656C6C6F001C
:00000001FF
